:020000040000FA
:10000000A0350010F1010000F9010000FB01000023
:10001000FD010000FF0100000102000000000000DF
:1000200000000000000000000000000003020000CB
:1000300005020000000000000702000009020000A5
:100040000B020000E93000000B0200000B02000070
:100050000B0200000B0200000B0200000B0200006C
:100060000B0200000B0200000B0200000B0200005C
:100070000B0200000B0200000B0200000B0200004C
:100080000B0200000B0200000B0200000B0200003C
:100090000B0200000B020000410700000B020000F1
:1000A000B13800000B020000890700000B020000BD
:1000B0000B0200000B0200000B0200000B0200000C
:1000C0000B0200000B0200000B02000000F002F81F
:1000D00000F064F80AA090E8000C82448344AAF17E
:1000E0000107DA4501D100F059F8AFF2090EBAE87C
:1000F0000F0013F0010F18BFFB1A43F0010318475C
:10010000D8E7070008E807000A444FF0000C10F891
:10011000013B13F0070408BF10F8014B1D1108BF85
:1001200010F8015B641E05D010F8016B641E01F825
:10013000016BF9D113F0080F1EBF10F8014BAD1C75
:100140000C1B09D16D1E58BF01F801CBFAD505E093
:1001500014F8016B01F8016B6D1EF9D59142D6D3ED
:10016000704700000023002400250026103A28BF15
:1001700078C1FBD8520728BF30C148BF0B60704719
:10018000642900F05D81732900F02182002070470E
:100190001FB500F0A8F81FBD10B510BD00F01BFA88
:1001A0001146FFF7F5FF04F061F900F039FA03B4E6
:1001B000FFF7F2FF03BC00F041FA00000B49D1F851
:1001C00000C04A685CF8043B1068184442F8040B0D
:1001D0008C4528BFA1F1DC0C8A4228BFA1F1DC02CA
:1001E000C1F800C04A6020F000407047383300106A
:1001F0000948804709480047FEE7FEE7FEE7FEE7BB
:10020000FEE7FEE7FEE7FEE7FEE7FEE704480549F6
:10021000034A054B70470000A92F0000CD000000E5
:10022000A0330010A0350010A03300100FB41CB58F
:10023000074B06AA7B4469460090059800F09DF99B
:100240000020694600F0ACF91CBC5DF814FB00000E
:10025000690300002DE9F0410E46044600202062AB
:100260002046E168884730B3252805D0D4E901212C
:100270009047206A401CF2E7E16820460027884743
:10028000050018D0A5F14100192802D820354FF4F7
:1002900000673246294620462760FFF771FF40B1CC
:1002A000012804D0F61D26F007060836D8E7361DCB
:1002B000D6E72846DAE7206ABDE8F0810B4910B599
:1002C000A1F17C020A4CC2E93712372106E000EBAB
:1002D000104342F82130074B00FB03400B1EA1F1F5
:1002E0000101F4DC10BD0120E8E70000D832001065
:1002F000E119D666CD0D010070477047FFFFFFFF83
:1003000053EA020C00F069802DE9F04B4FF0000633
:10031000002B1FBFB3FA83F503FA05F424FA05F6A0
:100320005E4012BF1643B2FA82F502FA05F4C5F137
:1003300020051EBF22FA05FC44EA0C04203556EACB
:10034000044C4FEA144418BF641C4FF000084FF0EF
:100350000009904271EB030C39D3002919BFB1FA9F
:1003600081F701FA07F6B0FA80F700FA07F6C7F14D
:1003700020071EBF20FA07FC46EA0C062037B6FB12
:10038000F4FCA7EB0507103F07F01F0BCBF120068D
:100390000CFA0BFB2CFA06F644BFB3460026202FBE
:1003A000A4BF5E464FF0000B5BEA060C08BF4FF09F
:1003B000010B19EB0B09ABFB027C48EB0608C01BD9
:1003C00006FB02CC0BFB03CC71EB0C01C1E70B4627
:1003D000024641464846BDE8F08B13B54FF0000099
:1003E0004FF00001AFF30080BDE81C40704770B5CE
:1003F0000C460546012A05D02878800600D5EA6912
:10040000002302E0012305E05B1C934202D2E05C82
:100410000028F9D1A869E618C01AA861286A18440A
:1004200028622846AFF3008004E0D5E9012114F8E2
:10043000010B9047B442F8D32846AFF3008070BD5B
:100440002DE9F0410646002410687529314616A5AD
:1004500010D0AFF30080002802DA404213A507E075
:1004600031688A0701D512A502E0490704D511A514
:10047000012401E0AFF3008000210A2206F12407E5
:1004800009E0B0FBF2FCB0FBF2F302FB1C003030E1
:1004900078541846491C0028F3D123462A46304692
:1004A000BDE8F04100F00BB8000000002D00000096
:1004B0002B000000200000007047704770472DE9B6
:1004C000F0470D4699469246044600F1240801681B
:1004D000880604D5E06921F01001216000E00120C8
:1004E000A84201DD471B00E00027A1697A1902EB51
:1004F0000900081AA0612078C00602D42046AFF394
:100500000080002608E0D4E901211AF8060090478F
:10051000206A401C761C20624E45F4DB2078C00621
:100520000AD52046AFF3008006E0D4E9012130204F
:100530009047206A401C2062381EA7F10107F4DCB6
:1005400007E0D4E9012118F805009047206A401C13
:100550002062281EA5F10105F3DC2046AFF30080E0
:100560002078000602D50220BDE8F0870120FBE7D5
:1005700001694A1C02610878704700B58FB0CDE967
:1005800001310021059105497944CDE90310114657
:100590006846FFF75FFE0FB000BD0000E5FFFFFFFC
:1005A0000A6802F8010B0A60704710B5436913B17D
:1005B000AFF3008001E0FFF71AFF012010BD1278B1
:1005C00000F124010A7000224A700122EDE711684F
:1005D0004FF0FF32E9E7754600F02CF8AE46050013
:1005E0006946534620F00700854618B020B5FFF74E
:1005F0000DFEBDE820404FF000064FF000074FF021
:1006000000084FF0000B21F00701AC46ACE8C00930
:10061000ACE8C009ACE8C009ACE8C0098D46704739
:1006200010B50446AFF300802046BDE81040FFF748
:10063000BEBD00000048704740330010014918203B
:10064000ABBEFEE726000200002070470020704786
:100650001F488088B0F5007F38D11D48807890BB56
:100660001B48C078012802D002282ED10AE0184881
:100670004078812805D11748007817490870012073
:10068000704722E012484078812806D082280AD09C
:1006900083280DD0842817D110E0104800880E4917
:1006A00008800120ECE700200B4908800120E7E7E3
:1006B0004FF48070084908800120E1E704200649D2
:1006C00008800120DCE701E000BF00BF0020D7E781
:1006D000343000103C300010FC300010103000109E
:1006E00013488088B0F5007F20D111488078E8B9A0
:1006F0000F48C078012802D0022816D10AE00C4821
:100700004078012805D10B4800780B49087001207A
:1007100070470AE006484078012805D1054800885E
:10072000064908800120F3E700BF00BF0020EFE783
:1007300034300010FC3000103C300010103000103D
:1007400008B50648006B009004484068C0F30B10E1
:100750000349088001200349087008BD0040034098
:10076000643000106630001000BF01218140054A4E
:1007700052E8002F22EA0101024B43E80012002A4E
:10078000F3D170476830001070B50024B2E05B48C8
:1007900001680120A0400140002975D0584901EBB3
:1007A0004415564840680121A140084000287DD0EA
:1007B0000120A0405149886004EB8400514901EBBD
:1007C0008000C06804EB84014E4A02EB8101896815
:1007D00088425AD004EB8400114601EB8000806807
:1007E00004EB840102EB8101C968461AB6F5805F0B
:1007F00001D340F6FF7604EB8400424901EB800010
:10080000C068304404EB84013E4A02EB8101C860B9
:10081000E86800F0806098B104EB8400114651F85C
:100820002000286004EB840051F82010E868C0F331
:10083000814006FA00F0084404EB840142F82100EC
:10084000E86800F00060B8B104EB84002D4901EBCA
:1008500080004068686004EB840001EB8000416820
:10086000E868C0F3415006FA00F0084404EB840144
:10087000244A02EB81014860E86866F30B00E860F7
:10088000286940F00100286133E0E0B2FFF76CFF17
:1008900004EB84001B4901EB8000006948B304EBC2
:1008A00084000A4602EB8000016900E002E00120BA
:1008B00088471EE01148C0680121A1400840C0B12E
:1008C00000202861E860E0B2FFF74EFF0120A04061
:1008D0000A49086104EB84000A4901EB80000069C1
:1008E00038B104EB84000A4602EB80000169022063
:1008F0008847641C082CFFF44AAF70BD00400050CC
:1009000000410050BC3100102DE9F04707468846F1
:10091000144699461FFA89F000F0F4FC00250AE01D
:10092000002605E008EB0601781900F0A5FC761C0E
:10093000A642F7DB6D1CA542F2DBBDE8F0872DE98E
:10094000F04707468846144699461FFA89F000F09A
:10095000D9FC00250AE0002605E008EB060178191D
:1009600000F08AFC761CA642F7DB6D1CA542F2DB88
:10097000BDE8F08770B504460D461646B0B200F0EB
:10098000C1FC2946204600F077FC2946601C00F097
:1009900073FC691C204600F06FFC691C601C00F0B1
:1009A0006BFC70BD70B504460D461646B0B200F043
:1009B000A9FC2946204600F05FFC2946601C00F097
:1009C0005BFC691C204600F057FC691C601C00F0B1
:1009D00053FC70BD70B50948006800EB800044000E
:1009E00006484068401C00EB800045004FF4784307
:1009F0000A2229462046FFF787FF70BDAC30001061
:100A000070B50948006800EB800044000648406863
:100A1000401C00EB800045004FF478430A22294631
:100A20002046FFF78CFF70BDF030001070B509480C
:100A3000006800EB8000440006484068401C00EB62
:100A4000800045004FF6E0730A2229462046FFF752
:100A50005BFF70BD9C30001070B50948006800EB6A
:100A60008000440006484068401C00EB80004500C0
:100A70004FF6E0730A2229462046FFF760FF70BD5B
:100A8000E030001001460A07D00E01F0800202B1EA
:100A9000401C70472DE9F05F8046894614461F468A
:100AA000DDF828A0D3463B4622464946404600F0A2
:100AB0002FFC222003F01AFE03F04AFE781E00FBF2
:100AC00004F50AE0002605E0A9193BF8110003F03F
:100AD00035FE761CA642F7D32D1B002DF2DA03F06B
:100AE00041FEBDE8F09F70B5054600F067FC22208E
:100AF00003F0FCFD03F02CFE002403E0284603F085
:100B00001DFE641CB4F5963FF8D303F02BFE70BDB8
:100B100070B590B006460D4600F050FC15B1012DA1
:100B20001CD10DE0002404E0202001A90855601C20
:100B3000C4B2362CF8DB002101AA601C11540DE070
:100B4000002404E0202001A90855601CC4B2142C24
:100B5000F8DB002101AA601C115400BF00BF01ABEB
:100B60002A460021304600F031F810B070BD000078
:100B7000F8B505460E4617461C46A4F12000C4B23F
:100B800017B1012F1CD10CE00E4800EBC400E900A6
:100B900006EB4602009050000823062200F02AF8D7
:100BA0000EE004EB4400084901EB001005EB4502A0
:100BB000D100009030011823102200F01BF800BF74
:100BC00000BFF8BD84470000044B00002DE9F04150
:100BD00006460D4617461C4607E014F8013B294619
:100BE0006D1C3A463046FFF7C3FF20780028F4D149
:100BF000BDE8F0812DE9FF5F8346164699460E9FBA
:100C00004B4632465846019900F082FB222003F001
:100C10006DFD03F09DFDF01D4FEAD00ABAF1010F02
:100C200016D1002511E097F800807F1C002409E010
:100C300028FA04F101F00101144A32F8110003F01E
:100C40007DFD641CB442F3D36D1C4D45EBD318E01D
:100C5000BAF1020F15D1002511E0B7F80080BF1CD2
:100C6000002409E028FA04F101F00101074A32F8F2
:100C7000110003F063FD641CB442F3D36D1C4D45B9
:100C8000EBD303F06FFDBDE8FF9F000000000010F4
:100C900010B5FE48006840F48060FC49C439C1F8D2
:100CA000C4000846D0F8A80140F40010C1F8A8011B
:100CB000F748406A20F07060F5494862F548D0F87E
:100CC000800040F04050F349803108608805F149C8
:100CD000C1F898000846006840F0400008604020D5
:100CE0008861EB48006820F47C20E94908600846E8
:100CF000006840F42820086040F2C710E649086008
:100D000002200861486003F0B7FB04461CB90020CC
:100D100003F0F8FB0446472C7DD10120DF49087021
:100D20000021EA2003F024FD2021EB2003F020FD28
:100D30000C21EC2003F01CFDC721ED2003F018FD71
:100D40003821E82003F014FD1021E92003F010FD04
:100D50000121F12003F00CFD1021F22003F008FD29
:100D60000121402003F004FD0021412003F000FD9B
:100D70000021422003F0FCFC1021432003F0F8FC8A
:100D80000E21442003F0F4FC2421452003F0F0FC64
:100D90000421462003F0ECFC5021472003F0E8FC3E
:100DA0000221482003F0E4FC1321492003F0E0FC79
:100DB00019214A2003F0DCFC19214B2003F0D8FC58
:100DC00016214C2003F0D4FC1B21502003F0D0FC52
:100DD0003121512003F0CCFC2F21522003F0C8FC1C
:100DE0003F21532003F0C4FC3F21542003F0C0FCFA
:100DF0003E21552003F0BCFC2F21562003F0B8FC07
:100E00007B21572003F0B4FC0921582003F0B0FCEB
:100E10000621592000E089E003F0AAFC06215A20AF
:100E200003F0A6FC0C215B2003F0A2FC1D215C203A
:100E300003F09EFCCC215D2003F09AFC1B210846A8
:100E400003F096FC01211A2003F092FC2F212420AC
:100E500003F08EFC5721252003F08AFC88212320F3
:100E600003F086FC3621182003F082FC01211920B2
:100E700003F07EFC0021012003F07AFC88211F2072
:100E800003F076FC142003F0B3FA82211F2003F054
:100E90006FFC052003F0ACFA92211F2003F068FCE0
:100EA000052003F0A5FAD2211F2003F061FC0520E4
:100EB00003F09EFA5521172003F05AFC0021084642
:100EC00003F056FC11212F2003F052FC00213120A9
:100ED00003F04EFC0021322003F04AFC3821282088
:100EE00003F046FC142003F083FA3C21282003F091
:100EF0003FFCA821162003F03BFC00210E2003F04C
:100F000037FC00210F2003F033FC0121102003F0F7
:100F10002FFC4021112003F02BFC0021122003F0B4
:100F200027FC0021132003F023FC9DE100205B49F6
:100F300008704FF48071012003F01AFC4FF4E06157
:100F4000022003F015FC0021042003F011FC40F204
:100F50000721082003F00CFC0021092003F008FC05
:100F600000210A2003F004FC00210C2003F000FC07
:100F700000210D2003F0FCFB00210F2003F0F8FB03
:100F80000021102003F0F4FB0021112003F0F0FBFE
:100F90000021122003F0ECFB0021132003F0E8FBFA
:100FA000142003F025FA41F2B021102003F0E0FBF9
:100FB0000721112003F0DCFB052003F019FA40F2B1
:100FC000BD11122003F0D4FB052003F011FA4FF4F9
:100FD000A051132003F0CCFB0E21292003F0C8FB05
:100FE000052003F005FA0021202003F0C1FB0021B9
:100FF000212003F0BDFBA4F5A840083838B1A0F5C6
:101000007C50183800287DD005287CD15BE040F664
:101010000D31302003F0ACFB41F62311312003F0F9
:10102000A7FB41F62641322003F0A2FB42F21C61ED
:10103000332003F09DFB42F21941342003F098FB6A
:1010400040F60B51352003F093FB41F206013620A8
:1010500003F08EFB4FF4C261372003F089FB40F2AE
:101060000671382003F084FB4FF44171392003F0FE
:101070007FFB40F605613A2003F07AFB40F6016100
:101080003B2003F075FB4FF4877109E0C4C00F40AB
:1010900000C0024000C0092000000340040000100E
:1010A0003C2003F065FB40F20E513D2003F060FB55
:1010B00040F203413E2003F05BFB40F207613F201A
:1010C00003F056FB61E00021302003F051FB40F2B9
:1010D0000761312003F04CFB40F20531322003F070
:1010E00047FB0021352003F043FB41F20461362029
:1010F00003F03EFB4FF40171372003F039FB01216F
:10110000382001E011E00FE003F032FB40F20771FC
:10111000392003F02DFB00213C2003F029FB0F2197
:101120003D2003F025FB30E000BF0621302003F016
:101130001FFB40F20111312003F01AFB0321322082
:1011400003F016FB4FF48371352003F011FB40F6DA
:101150000231362003F00CFB40F20231372003F05D
:1011600007FB40F20771382003F002FB072139200A
:1011700003F0FEFA4FF4C0613C2003F0F9FA40F2AC
:101180000B213D2003F0F4FA00BF00BF00215020E6
:1011900003F0EEFAEF21512003F0EAFA0021522089
:1011A00003F0E6FA40F23F11532003F0E1FAA4F510
:1011B000A840083830B1A0F57C50183850B1052847
:1011C00007D100E000BF4FF41C51602003F0D0FABB
:1011D00006E000BF4FF42741602003F0C9FA00BFCA
:1011E00000BF0121612003F0C3FA00216A2003F04F
:1011F000BFFA0021802003F0BBFA0021812003F018
:10120000B7FA0021822003F0B3FA0021832003F013
:10121000AFFA0021842003F0ABFA0021852003F00F
:10122000A7FA1021902003F0A3FA0021922003F0E6
:101230009FFA0321932003F09BFA4FF488719520C5
:1012400003F096FA0021972003F092FA00219820EB
:1012500003F08EFA41F23801032003F089FA40F2DC
:101260003711072003F084FA4FF0805001490860DD
:1012700010BD000098C0092070B504460D461C48FA
:10128000007820B3C4F30F21022003F071FAE1B219
:10129000032003F06DFAC4F30F21042003F068FA71
:1012A000E1B2052003F064FAC5F30F21062003F034
:1012B0005FFAE9B2072003F05BFAC5F30F210820BB
:1012C00003F056FAE9B2092003F052FA07E0A9B296
:1012D000202003F04DFAA1B2212003F049FA222088
:1012E00003F004FA0349488803F014FA70BD0000C3
:1012F0000400001000000010014908807047000041
:1013000000000010014948807047000000000010F4
:101310002DE9F04704460D4616461F46264800783C
:1013200060B3A019A0F10108E819A0F10109C4F304
:101330000F21022003F01CFAE1B2032003F018FA97
:10134000C8F30F21042003F013FA08F0FF01052071
:1013500003F00EFAC5F30F21062003F009FAE9B2F3
:10136000072003F005FAC9F30F21082003F000FA63
:1013700009F0FF01092003F0FBF91BE0A9B250209E
:1013800003F0F6F9E819401E81B2512003F0F0F99C
:10139000A1B2522003F0ECF9A019401E81B25320F3
:1013A00003F0E6F9A9B2202003F0E2F9A1B221206E
:1013B00003F0DEF9BDE8F0870400001010B5F0235B
:1013C0004FF4A07200210846FFF7A2FF10BD0000F5
:1013D00002460648202303FB0200406901238B409C
:1013E000184008B1012070470020FCE700C0092028
:1013F00030B53AB101238B40064C202505FB004453
:10140000A36106E001238B40024C202505FB00442C
:10141000E36130BD00C0092040B10949096841F4C9
:101420000041074AC43AC2F8C41007E004490968F9
:1014300021F40041024AC43AC2F8C41070470000C7
:10144000C4C00F4030B55AB10B4C04EB40131B68BD
:1014500001248C402343084D05EB401423600AE02F
:10146000054C04EB40131B6801248C40A343024D40
:1014700005EB4014236030BD00C009208AB0074648
:101480000024A1460026A2460020FFF72CFB0020E6
:10149000FFF732FF012F17D14FF4FC60FFF732FF47
:1014A0005BA3012204210220FFF790FB4FF4FC60B4
:1014B000FFF722FF0020FFF725FF58A3012200219C
:1014C0000420FFF783FB16E04FF47840FFF71AFF84
:1014D00056A3012204210220FFF778FB4FF4FC60A1
:1014E000FFF70AFF0020FFF70DFF53A301220021A1
:1014F0000420FFF76BFB0020FFF7FEFE4FF6FF70A6
:10150000FFF700FF4FA3012200210520FFF75EFB3C
:101510007DE000F04DFC0646564570D0102E04D1FB
:10152000641C012C15DD002413E0082E04D1641E78
:10153000002C0EDA01240CE0042E0AD114B1012C87
:1015400006D102E001F04CFA02E000F093F900BF8E
:1015500000BF4C4552D000254DE0A54207D14FF4C5
:10156000FC60FFF7C9FE0020FFF7CCFE06E000207C
:10157000FFF7C2FE4FF6FF70FFF7C4FE15B1012D55
:1015800037D121E001210420FFF7C2FA012F0AD14F
:10159000A54201D12DA000E01FA002462CA1684663
:1015A000FEF744FE09E0A54201D128A000E01AA000
:1015B00002462BA16846FEF739FE6B460122002148
:1015C0000420FFF703FB14E001210520FFF7A0FA38
:1015D000A54201D11DA000E00FA0024623A168464C
:1015E000FEF724FE6B46012200210520FFF7EEFAEC
:1015F00000BF00BF6D1C022DAFDBA146B2464FF00D
:10160000000801E008F101081A488045FADB80E78C
:10161000594F5520574F4E21000000003E20506C7E
:10162000617920416761696E0000000047414D45C6
:10163000204F5645520000003E20547279204167E9
:1016400061696E0045786974000000003E2000006A
:101650002573506C617920416761696E000000005C
:10166000257354727920416761696E00257345784E
:1016700069740000400D03008AB007460024A146AB
:101680000026A2460020FFF72EFA0020FFF734FEC6
:10169000012F17D14FF4FC60FFF734FE5BA301224A
:1016A00004210220FFF792FA4FF4FC60FFF724FEBA
:1016B0000020FFF727FE58A3012200210420FFF796
:1016C00085FA16E04FF47840FFF71CFE56A301227E
:1016D00004210220FFF77AFA4FF4FC60FFF70CFEBA
:1016E0000020FFF70FFE53A3012200210420FFF783
:1016F0006DFA0020FFF700FE4FF6FF70FFF702FEC5
:101700004FA3012200210520FFF760FA7DE000F0E1
:101710004FFB0646564570D0102E04D1641C012C98
:1017200015DD002413E0082E04D1641E002C0EDA0F
:1017300001240CE0042E0AD114B1012C06D102E0E0
:1017400001F080F902E000F095F800BF00BF4C45C1
:1017500052D000254DE0A54207D14FF4FC60FFF7C1
:10176000CBFD0020FFF7CEFD06E00020FFF7C4FD13
:101770004FF6FF70FFF7C6FD15B1012D37D121E0FF
:1017800001210420FFF7C4F9012F0AD1A54201D19C
:101790002DA000E01FA002462CA16846FEF746FDE2
:1017A00009E0A54201D128A000E01AA002462BA121
:1017B0006846FEF73BFD6B46012200210420FFF73F
:1017C00005FA14E001210520FFF7A2F9A54201D195
:1017D0001DA000E00FA0024623A16846FEF726FDEB
:1017E0006B46012200210520FFF7F0F900BF00BF82
:1017F0006D1C022DAFDBA146B2464FF0000801E0A0
:1018000008F101081A488045FADB80E7594F552056
:10181000574F4E21000000003E20506C617920415E
:101820006761696E0000000047414D45204F5645F5
:10183000520000003E2054727920416761696E00B9
:1018400045786974000000003E2000002573506C4C
:10185000617920416761696E000000002573547250
:101860007920416761696E002573457869740000CD
:10187000400D03008AB00024A0460026A1460020A7
:10188000FFF731F90020FFF737FD4FF6E070FFF763
:1018900039FD5AA3012204211046FFF797F94FF4AE
:1018A000FC60FFF729FD0020FFF72CFD56A3012265
:1018B00000210420FFF78AF90020FFF71DFD4FF6F5
:1018C000FF70FFF71FFD53A3012200210520FFF742
:1018D0007DF955A3012200210620FFF777F98CE05E
:1018E00000F066FA06464E457ED0102E04D1641CE8
:1018F000022C1ADD002418E0082E04D1641E002CEE
:1019000013DA022411E0042E0FD124B1012C05D0EA
:10191000022C09D105E001F063F805E001F092F82E
:1019200002E000F0C5FB00BF00BF44455ED00025CB
:1019300057E0A54207D14FF4FC60FFF7DDFC002023
:10194000FFF7E0FC06E00020FFF7D6FC4FF6FF7043
:10195000FFF7D8FC25B1012D17D0022D3FD129E08A
:1019600001210420FFF7D4F8A54201D133A000E003
:1019700027A0024632A16846FEF758FC6B460122BA
:1019800000210420FFF722F929E001210520FFF7BB
:10199000BFF8A54201D129A000E01DA002462BA15D
:1019A0006846FEF743FC6B46012200210520FFF745
:1019B0000DF914E001210620FFF7AAF8A54201D194
:1019C0001EA000E012A0024625A16846FEF72EFCEC
:1019D0006B46012200210620FFF7F8F800BF00BF88
:1019E0006D1C032DA5DB00E001E0A046B1460027F9
:1019F00000E07F1C1F488742FBDB71E72047616DD9
:101A000065204D656E7500003E205041434D414EAE
:101A1000000000005041434D414E204F70656E2044
:101A2000576F726C640000004261636B20746F201A
:101A30004D61696E204D656E750000003E2000000E
:101A400025735041434D414E000000002573504125
:101A5000434D414E204F70656E20576F726C64008D
:101A600025734261636B20746F204D61696E204D58
:101A7000656E7500A08601002DE9F04F87B06248C1
:101A8000D0F80080D0F8049044464D46FEF796FB0F
:101A9000642190FBF1F201FB1200069000260698EB
:101AA0003C282FDC5948006857490968884205DA04
:101AB00001223046761C02A941F8202053480068D4
:101AC00051490968884205DD02223046761C02A988
:101AD00041F820204D4840684B494968884205DA62
:101AE00008223046761C02A941F820204748406869
:101AF00045494968884205DD10223046761C02A916
:101B000041F8202022E0FEF759FB8346C0170BEB7B
:101B100090708010ABEB8000019000200090824616
:101B200009E002A850F82A100198814201D1012051
:101B300000900AF1010AB245F3DB009828B931465A
:101B4000761C02AA019842F8210000BF042EDADBBD
:101B5000002728E002A951F8270044464D460828EE
:101B600001D16D1E0AE0102801D16D1C06E001288C
:101B700001D1641E02E0022800D1641C002C05DBA8
:101B8000202C03DA002D01DB182D00DB0AE02049B0
:101B900001EBC51151F82410012902D01A498860BF
:101BA00003E000BF7F1C042FD4DB00BF164804688D
:101BB00045688068082801D16D1E10E012488068D1
:101BC000102801D16D1C0AE00F488068012801D15E
:101BD000641E04E00C488068022800D1641C0C4894
:101BE00000EBC51050F82400012802D107B0BDE871
:101BF000F08F4946404602F0A9FC03480460456066
:101C0000FEF7E8FE00BFF1E7AC3000109C3000109A
:101C10000C0000102DE9F04F87B06248D0F800802A
:101C2000D0F8049044464D46FEF7C8FA642190FB74
:101C3000F1F201FB120006900026069841282FDCE5
:101C40005948006857490968884205DA0122304638
:101C5000761C02A941F820205348006851490968C0
:101C6000884205DD02223046761C02A941F8202078
:101C70004D4840684B494968884205DA0822304699
:101C8000761C02A941F82020474840684549496828
:101C9000884205DD10223046761C02A941F820203A
:101CA00022E0FEF78BFA8346C0170BEB9070801092
:101CB000ABEB8000019000200090824609E002A872
:101CC00050F82A100198814201D1012000900AF1B8
:101CD000010AB245F3DB009828B93146761C02AA06
:101CE000019842F8210000BF042EDADB002728E02B
:101CF00002A951F8270044464D46082801D16D1E1F
:101D00000AE0102801D16D1C06E0012801D1641EF3
:101D100002E0022800D1641C002C05DB202C03DA31
:101D2000002D01DB182D00DB0AE0204901EBC51175
:101D300051F82410012902D01A49886003E000BF3D
:101D40007F1C042FD4DB00BF1648046845688068F8
:101D5000082801D16D1E10E012488068102801D1BA
:101D60006D1C0AE00F488068012801D1641E04E060
:101D70000C488068022800D1641C0C4800EBC51098
:101D800050F82400012802D107B0BDE8F08F494681
:101D9000404602F01BFC034804604560FEF730FE3D
:101DA00000BFF1E7F0300010E03000101018001014
:101DB00010B50024144A51781078FFF709FB08B9D0
:101DC00044F00404104AD1789078FFF701FB08B979
:101DD00044F008040C4A51791079FFF7F9FA08B970
:101DE00044F01004084AD1799079FFF7F1FA08B964
:101DF00044F00104044A517A107AFFF7E9FA08B96D
:101E000044F00204204610BDBCE8070038B50120AC
:101E1000FFF702FB002417E000200D4A02EB44020A
:101E2000009051780A4A12F8140000231A4600F074
:101E300063FA074A02EB44025178054A12F814008B
:101E40000022FFF7FFFA641C052CE5D3002038BD03
:101E5000BCE8070038B50120FFF7DEFA002421E0D6
:101E60000020124A02EB4402009051780F4A12F807
:101E700014000323002200F03FFA0C4A02EB440254
:101E800051780A4A12F814000122FFF7DBFA074AD8
:101E900002EB44025178054A12F814000022FFF7C1
:101EA000A7FA641C082CDBD3002038BDC6E8070065
:101EB00070B504460025082C0AD2074A02EB4402FA
:101EC0005178054A12F814000022FFF791FA01E058
:101ED0004FF0FF35284670BDC6E8070070B50446D0
:101EE0000025082C0AD2074A02EB44025178054A21
:101EF00012F814000122FFF77BFA01E04FF0FF35E2
:101F0000284670BDC6E8070070B5054600240BE002
:101F10000120A040284018B12046FFF7DFFF02E073
:101F20002046FFF7C5FF641C082CF1D3002070BDCC
:101F30001CB500F065FF2D48406820F470102B4957
:101F400048600846406840F410104860284800681F
:101F500040F480502649C439C1F8C40025482649B8
:101F600008604FF40040254908602148E4300068CB
:101F7000C0F381000190019830B1012809D00228F6
:101F80000BD003280ED000BF1D48006880080090C9
:101F90000DE01B480068009009E0194800684008FF
:101FA000009004E016480068C008009000BF00BF21
:101FB0004FF4FA410098B0FBF1F0401E4FF0402181
:101FC0008861032048610120486000BF01218140F1
:101FD0004209920002F1E022C2F8001100BF01F0B4
:101FE00075FD012001F06AF900BFFEE700C0024064
:101FF000C4C00F40040E20000040034000C0084051
:102000007030001000244FF47840FEF76CFD4FF460
:102010007840FFF771F914A3012202210846FEF768
:10202000D5FD15A3012204210320FEF7CFFD15A342
:10203000012200210820FEF7C9FD14E0FFF7B8FED9
:102040000446042C0FD101210220FEF761FD01217D
:102050000320FEF75DFD11A3012202210846FEF7D1
:10206000B5FDFFF765FFE9E75072657373204345DF
:102070004E54455220746F00706C61792061756414
:10208000696F0000507265737320444F574E20747F
:102090006F20676F206261636B000000506C617994
:1020A000696E6720417564696F2E2E2E0000000056
:1020B0008AB00024A0460026A1460020FEF713FDAA
:1020C0000020FFF719F94FF6E070FFF71BF960A346
:1020D000012204211046FEF779FD4FF4FC60FFF762
:1020E0000BF90020FFF70EF95DA301220021042067
:1020F000FEF76CFD0020FFF7FFF84FF6FF70FFF7CB
:1021000001F95CA3012200210520FEF75FFD5DA31C
:10211000012200210620FEF759FD5DA301220021C6
:102120000820FEF753FD60A3012200210920FEF7DD
:102130004DFD8CE0FFF73CFE06464E457ED0102E4E
:1021400004D1641C022C1ADD002418E0082E04D1EE
:10215000641E002C13DA022411E0042E0FD124B1E6
:10216000012C05D0022C09D105E000F0B3FA05E0FE
:10217000FFF748FF02E0FFF77DFB00BF00BF4445CB
:102180005ED0002557E0A54207D14FF4FC60FFF771
:10219000B3F80020FFF7B6F806E00020FFF7ACF830
:1021A0004FF6FF70FFF7AEF825B1012D17D0022DC5
:1021B0003FD129E001210420FEF7AAFCA54201D16C
:1021C0003FA000E025A002463EA16846FEF72EF89B
:1021D0006B46012200210420FEF7F8FC29E00121D2
:1021E0000520FEF795FCA54201D135A000E01BA01B
:1021F000024639A16846FEF719F86B460122002114
:102200000520FEF7E3FC14E001210620FEF780FC28
:10221000A54201D12AA000E010A0024632A16846E2
:10222000FEF704F86B46012200210620FEF7CEFCE3
:1022300000BF00BF6D1C032DA5DB00E001E0A04640
:10224000B146002700E07F1C2A488742FBDB71E78C
:10225000204D656E752053656C6563740000000049
:102260003E20312E2050686F746F2047616C6C6582
:1022700072790000322E204D503320506C61796508
:1022800072000000332E2047616D6573000000006E
:10229000557365204A6F79737469636B2075702F6D
:1022A000646F776E0000000020202053656C65632A
:1022B0007420772F2063656E747265202000000003
:1022C0003E2000002573312E2050686F746F204728
:1022D000616C6C65727900002573322E204D50338D
:1022E00020506C61796572002573332E2047616D33
:1022F00065730000400D03002DE9F04104460D46D2
:102300001646069F00212A46102D03DBA5F110007A
:10231000C2B20121DFF8D8C00CEBC40050F8210094
:102320004FEA42084FF0030C0CFA08FC20EA0C00BC
:10233000DFF8BC8008EBC40C4CF82100C4460CEB61
:10234000C40050F821004FEA420C06FA0CFC40EAA7
:102350000C0008EBC40C4CF821002548403000EB81
:10236000C40050F821004FEA42084FF0030C0CFA69
:1023700008FC20EA0C0C1E48403000EBC40040F87A
:1023800021C01B48403000EBC40050F821004FEA48
:10239000420C03FA0CFC40EA0C00DFF854C00CF1CC
:1023A000400C0CEBC40C4CF82100012F0ED110484E
:1023B000683050F824C00120A8404CEA0000DFF843
:1023C00030C00CF1680C4CF824000DE0084868306F
:1023D00050F824C00120A8402CEA0000DFF810C00B
:1023E0000CF1680C4CF824000020BDE8F0810000DE
:1023F00000C002402DE9F041002533E000242EE02A
:1024000004EB8400470005EB85000A2101EB400640
:10241000164800EBC51050F82400012806D11F23F0
:102420000A2231463846FEF76FFA17E00F4800EBF4
:10243000C51050F8240058B94FF6E072711D781D90
:10244000FEF798FA0A480068401C0949086005E050
:1024500000230A2231463846FEF756FA641C202C27
:10246000CEDB6D1C182DC9DBBDE8F0810C0000101F
:10247000080000102DE9F041002533E000242EE093
:1024800004EB8400470005EB85000A2101EB4006C0
:10249000164800EBC51050F82400012806D11F2370
:1024A0000A2231463846FEF74AFA17E00F4800EB99
:1024B000C51050F8240058B94FF6E072711D781D10
:1024C000FEF770FA0A480068401C0949086005E0F8
:1024D00000230A2231463846FEF731FA641C202CCC
:1024E000CEDB6D1C182DC9DBBDE8F0811018001083
:1024F0000C18001010B50020FEF7F5FAFFF77AFF70
:10250000FFF7A8FC0F200F49086012204860032045
:1025100088600020C8600720FFF7F6FC0F200A49FA
:1025200008600A204860012088600020FEF7E4FE71
:102530004FF6FF70FEF7E6FEFEF778FAFEF74AFA6E
:1025400010BD00009C300010AC30001010B5002011
:10255000FEF7C9FAFFF78EFFFFF77CFC0F200F494B
:10256000086012204860032088600020C8600720AF
:10257000FFF7CAFC0F200A4908600A2048600120C2
:1025800088600020FEF7B8FE4FF6FF70FEF7BAFE37
:10259000FEF762FAFEF734FA10BD0000E0300010DA
:1025A000F030001070B50646214804684568082ED2
:1025B00001D16D1E0AE0102E01D16D1C06E0012E26
:1025C00001D1641E02E0022E00D1641C194800EB08
:1025D000C51050F82400012829D0154A5268521C11
:1025E00002EB82025100124A126802EB8202500092
:1025F00000230A22FEF788F90D48046045600D4863
:1026000000EBC51050F8240078B90220094901EB0D
:10261000C51141F824000648C068401C0449C86040
:1026200005480068401E04490860FEF7FFF970BDC8
:102630009C3000100C0000100800001070B5064619
:10264000214804684568082E01D16D1E0AE0102E4D
:1026500001D16D1C06E0012E01D1641E02E0022EA4
:1026600000D1641C194800EBC51050F82400012863
:1026700029D0154A5268521C02EB82025100124ABC
:10268000126802EB8202500000230A22FEF757F97B
:102690000D48046045600D4800EBC51050F824005B
:1026A00078B90220094901EBC51141F82400064818
:1026B000C068401C0449C86005480068401E0449C1
:1026C0000860FEF7C9F970BDE03000101018001066
:1026D0000C1800108AB00024A0460026A146002055
:1026E000FEF701FA0020FEF707FE4FF6E070FEF756
:1026F00009FE7AA3012204211046FEF767FA4FF47F
:10270000FC60FEF7F9FD0020FEF7FCFD77A3012237
:1027100000210420FEF75AFA0020FEF7EDFD4FF6E7
:10272000FF70FEF7EFFD75A3012200210520FEF7E3
:102730004DFA77A3012200210620FEF747FA78A37D
:10274000012200210720FEF741FA7AA3012200218D
:102750000820FEF73BFABFE0FFF72AFB06464E458E
:1027600074D0102E04D1641C042C21DD00241FE041
:10277000082E04D1641E002C1ADA042418E0042E5A
:1027800016D1052C13D2DFE804F00306090C0F0064
:10279000204600F075FA204600F072FA204600F05C
:1027A0006FFA204600F06CFAFFF782FC00BF00BF12
:1027B00044456ED0002584E0A54207D14FF4FC606B
:1027C000FEF79AFD0020FEF79DFD06E00020FEF7D3
:1027D00093FD4FF6FF70FEF795FD052D6FD2DFE8F4
:1027E00005F003182D43590001210420FEF790F94C
:1027F000A54201D154A000E044A0024653A168467E
:10280000FDF714FD6B46012200210420FEF7DEF9DE
:1028100055E001210520FEF77BF9A54201D14AA030
:1028200000E03AA002464DA16846FDF7FFFC6B466A
:10283000012200210520FEF7C9F940E00121062010
:10284000FEF766F9A54202D13FA001E03EE02FA0CD
:10285000024647A16846FDF7E9FC6B4601220021CC
:102860000620FEF7B3F92AE001210720FEF750F910
:10287000A54201D134A000E024A0024640A1684650
:10288000FDF7D4FC6B46012200210720FEF79EF9DC
:1028900015E01AE001210820FEF73AF9A54201D11E
:1028A00029A000E019A002463BA16846FDF7BEFC46
:1028B0006B46012200210820FEF788F900BF00BF07
:1028C0006D1C052DFFF678AFA046B146002700E04D
:1028D0007F1C36488742FBDB3EE7000050686F7480
:1028E0006F2047616C6C6572790000003E20537563
:1028F0006E736574204C616B6500000057696E74DF
:102900006572204D6F756E7461696E730000000012
:1029100053756D6D657220436F77626F79000000AB
:10292000537072696E6774696D6520466C6F776568
:10293000727300004261636B20746F204D61696E99
:10294000204D656E750000003E2000002573537514
:102950006E736574204C616B6500000025735769C8
:102960006E746572204D6F756E7461696E730000D0
:10297000257353756D6D657220436F77626F7900B3
:102980002573537072696E6774696D6520466C6F4C
:10299000776572730000000025734261636B2074D9
:1029A0006F204D61696E204D656E7500A086010037
:1029B00001463020084A10600848C0F8101200BFD5
:1029C00005480838006800F020000028F8D00248C8
:1029D0000C3000687047000008C2005000C0005072
:1029E00070B5002425E0002520E0144800EBC41059
:1029F00050F82500012805D1114901EBC41141F817
:102A0000250012E00D4800EBC41050F8250030B945
:102A100000200B4901EBC41141F8250005E002201C
:102A2000074901EBC41141F825006D1C202DDCDBAA
:102A3000641C182CD7DB00F037F870BD0C0C0010AC
:102A40000C00001070B5002425E0002520E014489B
:102A500000EBC41050F82500012805D1114901EB05
:102A6000C41141F8250012E00D4800EBC41050F8E5
:102A7000250030B900200B4901EBC41141F82500B5
:102A800005E00220074901EBC41141F825006D1C47
:102A9000202DDCDB641C182CD7DB00F07BF870BD2C
:102AA000102400101018001070B5002500203049C7
:102AB0000860FFF71FFDFFF7A9F954E0FFF778F969
:102AC0000446601C10B12046FFF76CFDFEF7D4FFF2
:102AD0002848006828490968884214D12548406878
:102AE0002549496888420ED122488068401E214904
:102AF00088608868FFF7DCF90F201E490860122003
:102B00004860FDF793FF1B48806818B900252846E8
:102B1000FEF7B4FC1648006818B901252846FEF7F0
:102B2000ADFC0020FEF7E8FB4FF6FF70FEF7EAFB76
:102B3000104812A1C2681348FDF778FB0D4812A196
:102B400082681348FDF772FB0E4B012200210846F4
:102B5000FEF73CF80E4B01220F210020FEF736F85D
:102B600001F04EFC00BF034880680028A6DC70BD61
:102B7000080000109C300010AC3000105074733A04
:102B800025640000743000104C76733A2564000010
:102B90008830001070B50025002030490860FFF72C
:102BA000D5FCFFF733F954E0FFF702F90446601C47
:102BB00010B12046FFF742FDFFF72CF828480068C7
:102BC00028490968884214D1254840682549496840
:102BD00088420ED122488068401E2149886088685A
:102BE000FFF766F90F201E49086012204860FDF7C4
:102BF00033FF1B48806818B900252846FEF73CFDC6
:102C00001648006818B901252846FEF735FD002052
:102C1000FEF772FB4FF6FF70FEF774FB104812A12F
:102C2000C2681348FDF702FB0D4812A182681348E1
:102C3000FDF7FCFA0E4B012200210846FDF7C6FF06
:102C40000E4B01220F210020FDF7C0FF01F0E2FB37
:102C500000BF034880680028A6DC70BD0C18001077
:102C6000E0300010F03000105074733A256400001A
:102C7000B83000104C76733A25640000CC30001058
:102C800008B50646344600270025A8464FF6FF70D3
:102C9000FDF729FF40F2EF30FEF72EFB49A301229A
:102CA00002210020FDF792FF34B1012C0ED0022C3E
:102CB00016D0032C28D11DE04748D5234FF4A0722D
:102CC0001E2100900020FDF7E5FE1DE04348C823CB
:102CD0004FF4A0721E2100900020FDF7DBFE13E0F0
:102CE0003F48B2234FF4A0721E2100900020FDF750
:102CF000D1FE09E03B48B4234FF4A0721E2100909E
:102D00000020FDF7C7FE00BF00BF59E0FFF750F8F5
:102D10000546454554D0042D02D1FFF7DBFC0CE0FD
:102D2000022D04D1641C032C07DD002405E0012DD5
:102D300003D1641E002C00DA0324BC423FD04FF6BE
:102D4000FF70FDF7D0FE40F2EF30FEF7D5FA26A374
:102D5000012200210846FDF739FF34B1012C0ED0C5
:102D6000022C16D0032C28D11DE01B48D5234FF48C
:102D7000A0721E2100900020FDF78CFE1DE0174878
:102D8000C8234FF4A0721E2100900020FDF782FEA0
:102D900013E01348B2234FF4A0721E2100900020CC
:102DA000FDF778FE09E00F48B4234FF4A0721E210E
:102DB00000900020FDF76EFE00BF00BF2746A8462A
:102DC000A4E700005363726F6C6C20772F203C20C7
:102DD0006F72203E00000000046000008574020055
:102DE000866804008725060043656E747265206658
:102DF0006F72204D61696E204D656E750000000098
:102E00002DE9F04764480068C0F3016003287DD1D4
:102E100061488430006800F0030030B1012830D0F0
:102E2000022859D003282BD100E000BF5A4800687F
:102E3000C0F30740441C022157488838D0F8880066
:102E4000C0F30E00401CA1FB0001544B4FF0000CDE
:102E5000A0FB037901FB039100FB0C1122466346A2
:102E60003846FDF74DFA05464B487C300068C0B245
:102E7000441C224600232846FDF742FA48490860D0
:102E800056E045480068C0F30740441C0221424810
:102E90008838D0F88800C0F30E00401CA1FB001059
:102EA000404A4FF0000CA1FB027900FB029001FBAD
:102EB0000C01224663463846FDF722FA054636489D
:102EC0007C300068C0B2441C224600232846FDF72F
:102ED00017FA334908602BE02F480068C0F3074019
:102EE000441C02212C488838D0F88800C0F30E001A
:102EF000401CA1FB00124FF400400023A1FB00790D
:102F000002FB009001FB0301224600E011E038467D
:102F1000FDF7F6F9054620487C300068C0B2441C35
:102F2000224600232846FDF7EBF91D49086000BF43
:102F300030E019488430006800F0030030B1012807
:102F400010D0022819D0032823D100E000BF124876
:102F50007C300068C0B2401C1049B1FBF0F0104951
:102F6000086016E00C487C300068C0B2401C0D4977
:102F7000B1FBF0F00A4908600BE007487C300068BC
:102F8000C0B2401C4FF40041B1FBF0F004490860AE
:102F900000BF00BFBDE8F08788C00F4000093D00BA
:102FA00070300010001BB70020204B4908604B48D0
:102FB000D0F8A00100F0200030B100BF4648006802
:102FC00000F040000028F9D0032043499C390860F4
:102FD00000204249C1F8A8013F490C310860012096
:102FE0003D49943908603E483C4984310860AA2034
:102FF0003A498C31086055200860012037498031FA
:103000000860AA2035498C31086055203349C1F841
:103010008C0000BF31488830006800F080600028D4
:10302000F8D003202D4980310860AA202B49C1F82F
:103030008C00552029498C31086000BF2748883012
:10304000006800F04070B0F1407FF7D123202349A1
:10305000A4310860AA202149C1F8AC0055201F49BD
:10306000AC31086001201D49A0310860AA201B492D
:10307000AC31086055201949C1F8AC0000BF1748B1
:10308000A830006800F480600028F8D003201349BD
:10309000A0310860AA201149C1F8AC0055200F49A1
:1030A000AC31086000BF0D48A830006800F44070E3
:1030B000B0F5407FF7D10B480849C43108600020C3
:1030C0000649C1F8C8010846006820F4704040F481
:1030D0008040086070470000A0C10F4000C00F4052
:1030E00063000500DE87280470B5FEF761FE064622
:1030F000102E04D1002000F0E1F8FEF7D9FF384887
:103100000078002836D0374800683749098830F9F8
:1031100011403648008834490988401AC0F309052F
:10312000B5F5607F04D130480088401C2E490880E6
:10313000802D04D92C480088401C2B4908802A483F
:103140000088C0F3090028490880002C05DA2848C7
:103150000068001B2649086004E0254800682044F8
:1031600023490860234800684443241404F50044BC
:10317000A4B201E04FF400441F48007808B14FF4B6
:1031800000444FF6C07020401C4908601C4801886C
:103190000068401C1A4A1060C1F30900D0B901F060
:1031A00043F918480088B0F5004F03D100201149B9
:1031B000086006E0134800881349098848430D4910
:1031C00008600B480068040D002009490860072CBE
:1031D00000DD072401204FF04021086070BD000091
:1031E00050300010483000104C3000104E300010AD
:1031F00054300010403000103C30001000C0084037
:1032000058300010103000105230001030B5044615
:103210002046FDF737FC044941EA0045891328465A
:1032200001F098F830BD00000005400010B50346DD
:103230009878FDF727FC04460D4800680121A1405D
:1032400008430C49C1F844020948001D04609888ED
:10325000C1F84C0200BF06484438006800F4807092
:103260000028F8D04FF4807001493C39086010BD47
:1032700044C2005000C0005010B504460CB10120FB
:1032800000E000204FF4807242EA0041094801F05A
:1032900061F803200849086000BF07484438006807
:1032A00000F480700028F8D04FF4807002493C3957
:1032B000086010BD0005D80044C2005010B5044697
:1032C0000CB1012000E000204FF4807242EA00417E
:1032D000014801F03FF810BD0005FE0030B505467D
:1032E0002846FDF7CFFB054951F8203013B94FF0C0
:1032F000FF3030BD9C682046FBE70000000008203E
:1033000000B503461846FDF7BDFB01218140014889
:10331000016000BD88C200502DE9F04381460C4693
:10332000207BC0F340054846FDF7ACFB80460027F4
:10333000374850F8283017E01F46207B00F0010086
:1033400088B9344850F82500381A334951F8251007
:10335000B0FBF1F6314850F825000121B140884317
:103360002E4941F825003B68002BE5D1002608E0F6
:103370002A4850F825100120B040014001B902E070
:10338000761C202EF4D300BF202E02D10020BDE8F1
:10339000F083224850F825100120B04001431F4817
:1033A00040F825101B4850F825001B4951F82510FE
:1033B00006FB01034FB1207B00F0010028B13B6008
:1033C000786840F00400786005E0114840F8283043
:1033D000134840F82830002001C3207BC0F3800050
:1033E000217BC1F3400140EA0110E18840EA41102D
:1033F000A18840EA014001C3206801C3A089C0F34D
:103400000720000201C30DB1A06818600120BEE7CB
:103410003C3100106CE8070074E807005C300010D5
:103420000000082010B50C488088402801DD4024A9
:1034300001E009488488084822460168802000F09D
:103440004BFF0446044800682044034908600846CE
:103450008088001B888010BD2C30001010B50848F3
:103460000168002000F082FB044605480068204403
:103470000349086008468088001B888010BD000052
:103480002C30001030B504462046FDF7FBFA044905
:1034900041EA00450349284600F05CFF30BD0000CA
:1034A000000540000001200030B504462046FDF72D
:1034B000E9FA044941EA00458913284600F04AFF29
:1034C00030BD00000005400010B50446082C6FD246
:1034D000DFE804F06E04F2F16E6EF0EF00F0E2FE51
:1034E000BE490978C809FCF708FFBC48C088BC4938
:1034F0008880BA480078C0F3411010B1012879D112
:1035000090E0B64840780C2875D2DFE800F0060D50
:103510008815881D333A41555C8100F0B9FB00B92C
:10352000E1E0FFF77FFF7BE0002000F011FC00B935
:10353000D9E000F0BFFE73E0012000F009FC00B903
:10354000D1E000F0B7FE6BE000BFA448007800F0C7
:103550001F0030B9A148807840F08000A149087070
:1035600001E0002001E000BF012000B9BBE000F055
:10357000A1FE55E000F030FB00B9B4E0FFF752FFC8
:103580004EE0002000F07CFE00209549888047E056
:1035900000BF9248007800F01F0018B99248904987
:1035A000086001E0002001E000BF012008B99AE0B6
:1035B00011E1FFF737FF33E000F040FC00B992E083
:1035C00000F078FE2CE000BF8448007800F01F0077
:1035D000012814D18448007870B18048007983496B
:1035E0000978884208DA7D480079814908447C4995
:1035F000086003E076E012E0002004E001E0002033
:1036000001E000BF012000B96DE0FFF70BFF07E00C
:1036100000F0F0FC00B966E000F04CFE00E062E073
:1036200000BF67E06D48007800F01F0020B101285E
:1036300003D0022854D12DE055E06848007938B114
:1036400066480079012803D064480079022820D117
:103650006248407882280BD004DC012814D08128ED
:1036600016D104E0832804D0842811D102E000BFE1
:1036700000BF00BFFCF7ECFF28B15E485849086066
:10368000FFF7D0FE2DE003E05A485549086028E0D6
:1036900000BF28E05148407882280FD004DC012880
:1036A00018D081281AD108E0832808D0842815D1A1
:1036B00006E08CE087E06DE01EE000BF00BF00BFC9
:1036C000FCF7C2FF28B14B4845490860FFF7AAFE46
:1036D00007E003E047484249086002E000BF02E01B
:1036E00001E007E000BF802000F0CAFD00203C4957
:1036F000888000BF00BF6EE038480078C00980BBFA
:103700003748808870B3FFF7A9FE3548808848BBEA
:1037100032480078C0F3411010B1012835D100E0E3
:10372000E1E72E48007800F01F0020B1012803D007
:10373000022828D11AE0D6E72848007938B127486E
:103740000079012803D02548007902280DD12348AB
:103750004078012808D1FCF7C3FF20B100F0AAFD92
:1037600012E014E015E000BF00BFBCE71B48407842
:10377000012806D1FCF76AFF10B100F09BFD03E0C1
:1037800000BF00BFAFE7AEE700E0ACE701E000F04C
:1037900099FD20E0114800780121B1EBD01F02D142
:1037A000FFF740FE0EE00F48007800F0800048B1BF
:1037B0000C48007800F07F000A490870084600783D
:1037C00000F046FD07E00020FFF720FD03E0802029
:1037D000FFF71CFD00BF00BF10BD0000343000101B
:1037E0002C3000101630001017300010243000105C
:1037F00025300010FC3000101FB5044604F008000E
:1038000010B30320FFF76AFD24490968244A12888F
:10381000022303FB0211884217D021480088803020
:103820001F49088008460088C0F309000880084640
:1038300000881C490988401AC0F30900B0F5007FD0
:103840000AD101201849087006E0002016490870C6
:1038500013480088134908800A20F0B10F48006817
:103860000F490988022202FB010000900420ADF8F4
:1038700004000020ADF806000C480068029000200B
:103880000390039820F00200801C039069460320F7
:10389000FFF742FD0320FFF733FD1FBD4830001046
:1038A0004E3000104C3000105030001044300010EA
:1038B0002DE9F0478048076807F00800E8B10820C4
:1038C0007D49083108607D4800F030FD7C48FFF7F5
:1038D0006FF8064606F0100018B100F023FC00F067
:1038E000B1FC06F0080038B106F0040010B100F099
:1038F000F1FC01E000F0AAFCDBE007F0010008B1F8
:1039000000F0A5FC07F0040000284DD04FF000099E
:103910006C48D0F8308200243FE0C84500D13EE03A
:103920000120A04000EA080058B30120A04040EA6E
:10393000090965080120A0405F493831086000BFCF
:103940005D48006800F020000028F9D05A48143083
:10395000066804F00100A8B954B906F0040038B1B3
:103960005948006820B1584801680120884713E091
:10397000554850F8250020B1534850F82510022032
:10398000884708E0504850F8250020B14E4850F8CC
:1039900025100320884700BF641C202CBDD300BF26
:1039A000042045490831086043489030006800F021
:1039B000010028B34048A030066802241BE0012023
:1039C000A0403040B0B1650804F0010048B93E485D
:1039D00050F8250070B13C4850F825100820884761
:1039E00008E0394850F8250020B1374850F8251034
:1039F00009208847641C202CE1D32F48A43006609E
:103A00002D489030006800F0020028B32A48AC30FE
:103A1000066802241BE00120A0403040B0B16508D8
:103A200004F0010048B9284850F8250070B1264834
:103A300050F825100A20884708E0234850F8250050
:103A400020B1214850F825100B208847641C202CF9
:103A5000E1D31948B030066017489030006800F094
:103A6000040028B31448B830066802241BE0012083
:103A7000A0403040B0B1650804F0010048B91248D8
:103A800050F8250070B1104850F825100C208847D8
:103A900008E00D4850F8250020B10B4850F82510DB
:103AA0000D208847641C202CE1D30348BC300660FD
:103AB00000BFBDE8F087000000C200500005FE0016
:103AC0000002FE0000C000507CE8070000B522485C
:103AD000406820F07050204948600846406840F037
:103AE000A05048600846C0681C4908401A49C86090
:103AF0000846C0681A4908431749C8600846006963
:103B000020F4402008610846006940F480200861E4
:103B10001448006840F000401249C439C1F8C4009C
:103B200012201149086000BF0F48001D006800F016
:103B300012001228F8D11820012181404209920078
:103B400002F1E022C2F8001100BF00F0EBFA002001
:103B500000F07EFB00BD000000C00240CFFFFFCFA1
:103B600010000020C4C00F40F4CF0050F0B505464F
:103B70000F4605F00F00012101EB8000134908609A
:103B800000BF12480838046804F400600028F8D028
:103B9000C4F30904002605E00D48D0F81802386087
:103BA0003F1D761CE01CB6EB900FF5D300200749B3
:103BB000086041F24820284100F0010018B9054989
:103BC000284600F0E9FB2046F0BD000028C2005066
:103BD00000C000500005F20010B52848007800F041
:103BE0001F0010B101283ED13AE02448C0780128D6
:103BF00004D0022807D003282ED118E02048214CF9
:103C0000206012232AE02049002204E0087808B14D
:103C100048880144521C194880789042F6D10878AF
:103C200008B9002010BD174801604B8816E01749FD
:103C3000002204E0087808B108780144521C0F48BB
:103C400080789042F6D1087808B90020EAE70D485C
:103C500001600068037801E00020E3E700BF04E0B2
:103C600000BF0020DEE70020DCE700BF05488088B9
:103C7000984201D9034CA3800120D3E734300010CF
:103C800088E707002C3000109AE7070008E80700D3
:103C90002748007800F01F0020B1012806D0022834
:103CA00041D116E02348244B18603EE023480078B9
:103CB00060B11F480079224B1B78984206DA002039
:103CC000204B188018461C4B186001E000207047FC
:103CD0002BE01748007900F08F0101F0800028B137
:103CE00001F00F034FF48030984001E0012088403C
:103CF00002461248007810B901F00F0080B912484E
:103D00000068104060B111480068104008B10120FF
:103D100000E000200B4B18801846074B186001E0AC
:103D20000020D4E701E00020D1E700BF0120CEE76A
:103D300034300010143000102C30001017300010F8
:103D400024300010FC300010183000101C3000101F
:103D500070B506463348007800F01F0020B10128F6
:103D60001DD0022858D11CE02E484088012813D1CC
:103D700046B100F0B0FA2C48008840F002002A4911
:103D800008800BE0002000F0A6FA2748008820F009
:103D900002002549088001E0002070BD3EE00020BF
:103DA000FBE72048007900F08F0404F0800028B180
:103DB00004F00F014FF48030884001E00120A04062
:103DC00005461A48007820B304F00F0008B31848DD
:103DD00000682840E8B113484088C0B946B1204681
:103DE00000F04EFA1348006828431249086012E0B8
:103DF00011480068284008B10120CEE72046FFF7AF
:103E000005FA0C480068A8430A49086003E000204E
:103E1000C3E70020C1E701E00020BEE700BF0120AA
:103E2000BBE70000343000101430001017300010D1
:103E3000183000101C300010203000102DE9F04127
:103E400000266348007800F01F0000287ED16048FB
:103E5000807800287BD05F4D7EE06878022804D00F
:103E6000042851D0052870D150E0687958498978E4
:103E7000884245D156488078574908702879574973
:103E80000870002403E0002055490855641C042CE8
:103E9000F9D3012414E00120A040524909680840E8
:103EA00010B12046FFF7EEFA4FF48030A0404D49A4
:103EB0000968084018B144F08000FFF7E3FA641C79
:103EC000102CE8D34FF00110464908600020464905
:103ED0000860464908600120FFF7CEF9E87900F054
:103EE000400030B14248008840F00100404908805D
:103EF00009E03F48008820F001003D49088002E0C9
:103F00006888054428E020E0EE781EE0E6B9A8784D
:103F100000F08F0404F0800028B104F00F014FF48A
:103F20008030884001E00120A04007462D4800680D
:103F300038432C4908602846FFF778F92046FFF7F8
:103F4000B3FA204600F06EF900BF01E03AE008E065
:103F500000BF2878054400BF287800287FF47DAF93
:103F600026E000201C490870012414E00120A04034
:103F70001C490968084010B12046FFF783FA4FF446
:103F80008030A04017490968084018B144F080000B
:103F9000FFF778FA641C102CE8D34FF00110114998
:103FA000086000201049086010490860FFF764F9B4
:103FB0000748807808490978884202D00020BDE887
:103FC000F08101E00020FAE700BF0120F7E70000E0
:103FD000343000109AE7070017300010243000102A
:103FE00025300010183000101C3000102030001058
:103FF000143000102DE9F05F0027B846BB46B946E3
:104000004248007800F01F00012879D1404800782C
:1040100010B90020BDE8F09F4FF0000A3D4C6AE067
:104020006078022804D004280BD005285FD11EE058
:10403000607937490978884202D0608804445AE0A0
:1040400055E0A77894F803804FF000092F480079D5
:10405000B8420BD12D488078404507D14FF0010A76
:104060002D4810F807B0014601F807803FE02748C7
:104070000079B8423AD1A07800F08F0606F08000AF
:1040800028B106F00F014FF48030884001E0012094
:10409000B04005461D488078404515D11F4800684E
:1040A00028431E4908601E480068A8431C49086050
:1040B0002046FFF7BBF83046FFF7F6F9304600F030
:1040C000B1F849EA050911E0D8450FD109EA050020
:1040D00060B912480068A843104908601048006899
:1040E000A8430F4908603046FFF7CCF900BF00BF76
:1040F0002078044400BF2078002891D102E0FFE737
:10410000002087E700BF504684E7000034300010ED
:10411000173000109AE70700253000101830001003
:104120001C30001000212A4A11604021294AC2F89F
:104130004C120121264A11604021264AC2F84C1235
:1041400000BF23494839096801F480710029F8D07B
:104150004FF0FF311E4A103A11606FF040011D4AC6
:10416000C2F83412C9111A4A403A11600D21121FC7
:1041700011601949164A383211604FF0FF31144A64
:104180000C321160124A443211604021121F11603A
:104190004FF0FF310E4A5C3211600D4A68321160F7
:1041A0000B4A743211600721094A4C321160002118
:1041B0000A4A11605160002007E00021084A42F8D5
:1041C0002010084A42F82010401C2028F5D37047E0
:1041D00048C2005000C00050000008205C300010B1
:1041E0003C310010000008200020084908800849E0
:1041F0000870084908704FF0011007490860002056
:104200000649086006490860704700001430001035
:104210001630001017300010183000101C3000103D
:104220002030001030B504462046FCF72BFC044932
:1042300041EA00458913284600F08CF830BD0000A3
:104240000005400010B5FFF7CFFF10BD7047704765
:1042500010B5044644F080004FF4807242EA0041F9
:10426000064800F077F844F080004FF4807242EA8C
:104270000041024800F06EF810BD00000005D000BB
:1042800030B504462046FCF7FDFB044941EA0045F1
:104290000349284600F05EF830BD000000054000EC
:1042A0000001010010B502490020FFF75FFC10BDBE
:1042B0003430001010B500221146802000F00CF8B8
:1042C00010BD000010B502490020FFF74FFC10BDE3
:1042D000FC30001070477047F0B506460D46144696
:1042E00006F00F00022101EB80000D4908600D4827
:1042F000C0F82442002705E0286809490C39086005
:104300002D1D7F1CE01CB7EB900FF5D30020044956
:1043100008600549304600F03FF82046F0BD000037
:1043200028C2005000C000500005FA001021074AC2
:1043300011600749C1F8100200BF04490839096833
:1043400001F010010029F8D07047000008C20050A9
:1043500000C0005010220E4B1A600E4AC2F8100224
:1043600000BF0B4A083A126802F01002002AF8D087
:104370001022074B1A60074AC2F8101200BF044A05
:10438000083A126802F01002002AF8D070470000C4
:1043900008C2005000C0005010B504460B46102063
:1043A000114908602046FCF76DFB4FF4A06141EA1B
:1043B00000400E49C1F8100200BF0B4808380068E1
:1043C00000F010000028F8D01020074908600748C6
:1043D000C0F8103200BF04480838006800F0100030
:1043E0000028F8D010BD000008C2005000C00050E6
:1043F000800400BF011EA0F10100FBD17047000046
:10440000002000E0401C02498842FBDB70470000AE
:10441000A0252600002000E0401C02498842FBDB6A
:1044200070470000A02526000E49096841F0807100
:104430000C4A116000BF0B49486800F00041002998
:10444000F9D00849096821F08071064A1160F82105
:1044500001EA1021082202EAD0121144024A118016
:10446000704700000040034052300010FCF710FC81
:10447000FDF7CCFCFDF71CFE10B52048006820F4C9
:104480007C201E4908600846006C40F42A2008641D
:104490001B48006840F0800019490860402088618E
:1044A000802088614020C8610121702000F0DEF882
:1044B0000121002000F0DAF8402011498861C8612C
:1044C0000121732000F0D2F80021084600F0CEF858
:1044D000044640200A4988610846006820F08000B0
:1044E00008600648006840F428200449086008462F
:1044F000006C20F47F200864204610BD00C00240FC
:1045000000C0092070B50546284600F0EFF800BF4E
:10451000002440200C49C861732000F097F8002067
:1045200000F094F8002000F091F804464FF6FF7078
:1045300000EA0424002000F089F8044340200249E6
:104540008861204670BD000000C009202DE9F041BF
:1045500004460D4604EB84004600681C00EB800016
:104560004700002C05DB202C03DA002D01DB182D81
:1045700001DBBDE8F08100230A2239463046FCF712
:10458000C3F9114800EBC51050F82400012806D1EA
:104590001F230A2239463046FCF7B6F912E00A48D2
:1045A00000EBC51050F8240030B94FF6E072791DC9
:1045B000701DFCF7DFF905E000230A22394630467A
:1045C000FCF7A2F900BFD4E70C0000102DE9F04180
:1045D00004460D4604EB84004600681C00EB800096
:1045E0004700002C05DB202C03DA002D01DB182D01
:1045F00001DBBDE8F08100230A2239463046FCF792
:104600009EF9114800EBC51050F82400012806D18E
:104610001F230A2239463046FCF791F912E00A4876
:1046200000EBC51050F8240030B94FF6E072791D48
:10463000701DFCF7B7F905E000230A223946304621
:10464000FCF77DF900BFD4E71018001001460648BA
:10465000816000BF0448C06800F004000028F9D061
:1046600001488068C0B27047000003402DE9F04166
:1046700006460D460027012D06D11B48006840F470
:1046800000701949086005E01748006820F40070C0
:1046900015490860072422E080201349C8610120E1
:1046A000FFF7A6FE012D0CD10120A040304018B12B
:1046B00068020D4988610BE04FF400700A49C86137
:1046C00006E009484069C0F34020A0403843C7B223
:1046D0008020054988610120FFF78AFE641E002CB6
:1046E000DADA3846BDE8F08100C0092010B504468A
:1046F00040200749C8617020FFF7A8FF0020FFF79E
:10470000A5FF2046FFF7A2FF40200149886110BDA8
:1047100000C0092010B5044640200749C861722036
:10472000FFF794FF2012FFF791FFE0B2FFF78EFF33
:1047300040200149886110BD00C0092010B5044621
:104740002012FFF783FFE0B2FFF780FF10BD0000EB
:1047500010B540200249C8617220FFF777FF10BDF5
:1047600000C00920402001498861704700C009202D
:1047700070B505460C462846FFF7B8FF2046FFF700
:10478000C9FF70BD00000000000000000404040424
:10479000040004000A0A0A00000000000A0A1F0AB6
:1047A0001F0A0A00041E050E140F04000313080458
:1047B0000219180002050502150916000C0C040266
:1047C00000000000080402020204080002040808B5
:1047D000080402000004150E0E1504000004041F56
:1047E00004040000000000000C0C04020000001F84
:1047F0000000000000000000000C0C000010080485
:10480000020100000E11131519110E000406040414
:1048100004040E000E11100E01011F001F10080CE1
:1048200010110E00080C0A091F0808001F010F10C4
:1048300010110E001C02010F11110E001F101008A4
:10484000040201000E11110E11110E000E11111EA5
:10485000100807000000040004000000000004002D
:1048600004040200100804020408100000001F00E5
:104870001F00000002040810080402000E11100CB2
:10488000040004000E11151D0D011E00040A111173
:104890001F1111000F11110F11110F000E11010145
:1048A00001110E000F11111111110F001F01010F45
:1048B00001011F001F01010F010101001E11010173
:1048C00019111E001111111F111111000E04040401
:1048D00004040E001C080808080906001109050355
:1048E000050911000101010101011F00111B15152E
:1048F0001511110011111315191111000E111111BB
:1049000011110E000F11110F010101000E111111F3
:10491000150916000F11110F050911000E11010ED6
:1049200010110E001F1504040404040011111111CC
:1049300011110E0011111111110A0400111111159C
:1049400015150A0011110A040A11110011110A04A7
:10495000040404001F10080E02011F001E020202C0
:1049600002021E0000010204081000001E101010B8
:1049700010101E00040A11000000000000000000DA
:1049800000001F00060604080000000000000608E2
:104990000E091E0001010D1311130D0000000E1170
:1049A00001110E00101016191119160000000E1139
:1049B0001F010E000814040E0404040000000E1968
:1049C0001916100E01010D13111111000400060437
:1049D00004040E0008000808080906000101090582
:1049E000030509000604040404040E0000000B156E
:1049F0001515150000000D131111110000000E1106
:104A000011110E0000000D13130D01010000161905
:104A10001916101000000D130101010000001E0105
:104A20000E100F0004041F040414080000001111EC
:104A30001119160000001111110A040000001111D3
:104A400015150A000000110A040A110000001111D6
:104A50001E10110E00001F0804021F0008040402AB
:104A6000040408000404040004040400020404080C
:104A7000040402000215080000000000000000000D
:104A80000000000000000C12120C000000000C1EC0
:104A90001E0C000000001E12121E000000001E1E50
:104AA0001E1E000000000C0C121E000000000C0C6A
:104AB0001E1E000000001E120C0C000000001E1E36
:104AC0000C0C000000001816161800000000181E3C
:104AD0001E1800000000061A1A0600000000061E3C
:104AE0001E06000000000C12120C000000000C1E3C
:104AF0001E0C000000001E12121E000000001E1EF0
:104B00001E1E000000000000000000000000000069
:104B10000000000000000000000000000000000095
:104B20000000000000000000000000000000000085
:104B300000000000000080018001800180018001F0
:104B4000800180018001800180018001800180015D
:104B50000000000080018001000000000000000053
:104B60000000000000000000CC00CC00CC00CC0015
:104B7000CC00CC000000000000000000000000009D
:104B80000000000000000000000000000000000025
:104B90000000000000000000000000000000000015
:104BA000600C600C600C30063006FE1FFE1F3006E5
:104BB00038071803FE1FFE1F180318038C018C0111
:104BC0008C01000000008000E003F80F9C0E8C1C9C
:104BD0008C188C009800F801E007800E801C8C185F
:104BE0008C189C18B80CF00FE003800080000000C7
:104BF000000000000000000000000E181B0C110C4B
:104C000011061106110311039B018E01C038C06CFF
:104C100060446044304430441844186C0C38000040
:104C2000000000000000E001F00338071806180635
:104C30003003F001F000F8009C310E33061E061C14
:104C4000061C063FFC73F02100000000000000007D
:104C500000000000000000000C000C000C000C0024
:104C60000C000C000000000000000000000000002C
:104C70000000000000000000000000000000000034
:104C8000000000000000000200038001C000C0001E
:104C90006000600030003000300030003000300034
:104CA0003000300060006000C000C00080010003E0
:104CB00000020000000020006000C00080018001B0
:104CC00000030003000600060006000600060006BA
:104CD000000600060003000380018001C0006000A0
:104CE00020000000000000000000000000000000A4
:104CF000C000C000D806F807E00130033807000004
:104D000000000000000000000000000000000000A3
:104D10000000000000000000000000000000000093
:104D200080018001800180018001FC3FFC3F800107
:104D3000800180018001800100000000000000006F
:104D40000000000000000000000000000000000063
:104D50000000000000000000000000000000000053
:104D600000000000000080018001000100018000BF
:104D70000000000000000000000000000000000033
:104D8000000000000000000000000000E007E00755
:104D90000000000000000000000000000000000013
:104DA0000000000000000000000000000000000003
:104DB00000000000000000000000000000000000F3
:104DC000000000000000C000C00000000000000063
:104DD000000000000000000C000C000600060006A9
:104DE0000003000300038003800180018001C000F4
:104DF000C000C00060006000000000000000000073
:104E0000000000000000E003F007380E180C0C183A
:104E10000C180C180C180C180C180C180C180C1872
:104E2000180C380EF007E00300000000000000003E
:104E300000000000000000018001C001F0019801A5
:104E40008801800180018001800180018001800152
:104E5000800180018001800100000000000000004E
:104E6000000000000000E003F80F180C0C180C18EC
:104E700000180018000C000600038001C00060004C
:104E800030001800FC1FFC1F0000000000000000A4
:104E9000000000000000E001F807180E0C0C0C0CDC
:104EA000000C0006C003C007000C001800180C1806
:104EB0000C18180CF807E0030000000000000000C8
:104EC000000000000000000C000E000F000F800D1D
:104ED000C00C600C600C300C180C0C0CFC3FFC3F40
:104EE000000C000C000C000C000000000000000092
:104EF000000000000000F80FF80F180018000C0068
:104F0000EC03FC071C0E001C0018001800180C18FD
:104F10001C0C180EF807E003000000000000000061
:104F2000000000000000C007F00F381C181818001F
:104F30000C00CC03EC0F3C0E1C1C0C180C180C18AD
:104F4000181C380EF007E00300000000000000000D
:104F5000000000000000FC1FFC1F000C0006000603
:104F6000000380038001C001C000E0006000600019
:104F70007000300030003000000000000000000031
:104F8000000000000000E003F007380E180C180CB9
:104F9000180C3806F007F007180C0C180C180C1831
:104FA0000C18380CF80FE0030000000000000000AF
:104FB000000000000000E003F007380E1C0C0C1885
:104FC0000C180C181C1C381EF81BE0190018000CDB
:104FD000000C1C0EF807F0010000000000000000AB
:104FE00000000000000000000000000000000000C1
:104FF00080018001000000000000000000000000AF
:10500000000000008001800100000000000000009E
:105010000000000000000000000000000000000090
:10502000800180010000000000000000000000007E
:1050300000000000800180010001000180000000EC
:105040000000000000000000000000000000000060
:10505000000000000010001C800FE003F8001800A2
:10506000F800E003800F001C0010000000000000AA
:105070000000000000000000000000000000000030
:1050800000000000F81F000000000000F81F0000F2
:105090000000000000000000000000000000000010
:1050A0000000000000000000000000000000000000
:1050B0000000000008003800F001C007001F0018C1
:1050C000001FC007F00138000800000000000000C9
:1050D000000000000000E003F80F180C0C180C187A
:1050E0000018000C000600038001C000C000C000D2
:1050F00000000000C000C000000000000000000030
:105100000000000000000000E00718180420C22979
:10511000224A114409440944094409221113E20CAA
:10512000024004201818E007000000000000000002
:1051300000000000000080038003C006C006C00617
:10514000600C600C301830183018F83FF83F1C70B5
:105150000C600C6006C006C00000000000000000EB
:10516000000000000000FC03FC0F0C0C0C180C18D5
:105170000C180C0CFC07FC0F0C180C300C300C300D
:105180000C300C18FC1FFC070000000000000000A1
:10519000000000000000C007F01F38381C300C7001
:1051A000066006000600060006000600060006600F
:1051B0000C701C30F01FE007000000000000000031
:1051C000000000000000FE03FE0F060E0618061881
:1051D0000630063006300630063006300630061837
:1051E0000618060EFE0FFE0300000000000000007F
:1051F000000000000000FC3FFC3F0C000C000C0015
:105200000C000C00FC1FFC1F0C000C000C000C0020
:105210000C000C00FC3FFC3F000000000000000000
:10522000000000000000F83FF83F180018001800C8
:1052300018001800F81FF81F1800180018001800B0
:1052400018001800180018000000000000000000FE
:10525000000000000000E00FF83F3C780E6006E020
:1052600007C00300030003FE03FE03C007C006C01F
:105270000EC03CF0F83FE00F00000000000000000E
:105280000000000000000C300C300C300C300C30F2
:105290000C300C30FC3FFC3F0C300C300C300C3030
:1052A0000C300C300C300C3000000000000000000E
:1052B0000000000000008001800180018001800169
:1052C00080018001800180018001800180018001D6
:1052D00080018001800180010000000000000000CA
:1052E00000000000000000060006000600060006A0
:1052F0000006000600060006000600060006180666
:1053000018063807F003E00100000000000000006C
:1053100000000000000006300618060C0606060312
:105320008601C60066007600DE008E0106030606D2
:10533000060C0618063006600000000000000000A1
:1053400000000000000018001800180018001800E5
:10535000180018001800180018001800180018008D
:1053600018001800F81FF81F0000000000000000DF
:105370000000000000000EE01EF01EF01EF036D807
:1053800036D836D836D866CC66CC66CCC6C6C6C645
:10539000C6C6C6C686C386C3000000000000000063
:1053A0000000000000000C301C303C303C306C3001
:1053B0006C30CC30CC308C310C330C330C360C369A
:1053C0000C3C0C3C0C380C300000000000000000CD
:1053D000000000000000E007F81F1C380E70066097
:1053E00003C003C003C003C003C003C003C0066002
:1053F0000E701C38F81FE0070000000000000000DD
:10540000000000000000FC0FFC1F0C380C300C30BA
:105410000C300C300C18FC1FFC070C000C000C00AE
:105420000C000C000C000C0000000000000000004C
:10543000000000000000E007F81F1C380E70066036
:1054400003E003C003C003C003C003C007E006635A
:105450000E3F1C3CF83FE0F700C0000000000000D9
:10546000000000000000FE0FFE1F06380630063068
:1054700006300638FE1FFE0706030606060C061851
:10548000061806300630066000000000000000002C
:10549000000000000000E003F80F1C0C0C180C18B2
:1054A0000C001C00F803E00F001E00380630063028
:1054B0000E301C1CF80FE007000000000000000088
:1054C000000000000000FE7FFE7F8001800180015F
:1054D00080018001800180018001800180018001C4
:1054E00080018001800180010000000000000000B8
:1054F0000000000000000C300C300C300C300C3080
:105500000C300C300C300C300C300C300C300C30BB
:105510000C301818F81FE007000000000000000021
:1055200000000000000003600630063006300C1852
:105530000C180C18180C180C380E300630067007B2
:1055400060036003C001C001000000000000000013
:105550000000000000000360C361C361C3616633E3
:10556000663366336633663366336C1B6C1B6C1BA9
:105570002C1A3C1E380E380E0000000000000000FF
:105580000000000000000FE00C7018303018700CA4
:10559000600EC00780038003C003E006700C301C5F
:1055A00018180C300E6007E000000000000000003A
:1055B00000000000000003C006600C301C383818E2
:1055C000300C6006E007C00380018001800180018B
:1055D00080018001800180010000000000000000C7
:1055E000000000000000FC7FFC7F0060003000181D
:1055F000000C000600038001C000600030001800AD
:105600000C000600FE7FFE7F00000000000000008E
:10561000000000000000E003E003600060006000A4
:10562000600060006000600060006000600060007A
:105630006000600060006000600060006000E003E7
:10564000E0030000000030003000600060006000F7
:10565000C000C000C000C0018001800180010003C3
:105660000003000300060006000000000000000028
:10567000000000000000E003E0030003000300035B
:105680000003000300030003000300030003000302
:105690000003000300030003000300030003E00312
:1056A000E003000000000000C001C00160036003CF
:1056B000600330063006180C180C000000000000D3
:1056C00000000000000000000000000000000000DA
:1056D00000000000000000000000000000000000CA
:1056E00000000000000000000000000000000000BA
:1056F000000000000000FFFFFFFF000000000000AE
:105700000000000000000C000C000C000C000C005D
:105710000C0000000000000000000000000000007D
:105720000000000000000000000000000000000079
:105730000000000000000000000000000000000069
:10574000F003F8071C0C0C0C000FF00FF80C0C0CFD
:105750000C0C1C0FF80FF0180000000000000000F7
:1057600000000000000018001800180018001800C1
:10577000D803F80F380C1818181818181818181813
:105780001818380CF80FD8030000000000000000C3
:105790000000000000000000000000000000000009
:1057A000C003F007300E180C18001800180018007D
:1057B000180C300EF007C0030000000000000000CD
:1057C0000000000000000018001800180018001861
:1057D000C01BF01F301C18181818181818181818A3
:1057E0001818301CF01FC01B000000000000000053
:1057F00000000000000000000000000000000000A9
:10580000C003F00F300C1818F81FF81F180018000C
:105810003818301CF00FC007000000000000000026
:10582000000000000000800FC00FC000C000C000DA
:10583000F007F007C000C000C000C000C000C000FA
:10584000C000C000C000C000000000000000000058
:105850000000000000000000000000000000000048
:10586000E00DF80F180E0C0C0C0C0C0C0C0C0C0CA6
:105870000C0C180EF80FE00D000C0C0C1C06F807B1
:10588000F0010000000018001800180018001800AF
:10589000D807F80F381C18181818181818181818DE
:1058A0001818181818181818000000000000000038
:1058B000000000000000C000C00000000000000068
:1058C000C000C000C000C000C000C000C000C000D8
:1058D000C000C000C000C0000000000000000000C8
:1058E000000000000000C000C00000000000000038
:1058F000C000C000C000C000C000C000C000C000A8
:10590000C000C000C000C000C000C000C000F8005F
:105910007800000000000C000C000C000C000C00D3
:105920000C0C0C060C038C01CC006C00FC009C01E0
:105930008C030C030C060C0C00000000000000009F
:10594000000000000000C000C000C000C000C00097
:10595000C000C000C000C000C000C000C000C00047
:10596000C000C000C000C000000000000000000037
:105970000000000000000000000000000000000027
:105980007C3CFF7EC7E383C183C183C183C183C1E4
:1059900083C183C183C183C10000000000000000F7
:1059A00000000000000000000000000000000000F7
:1059B0009807F80F381C18181818181818181818FD
:1059C0001818181818181818000000000000000017
:1059D00000000000000000000000000000000000C7
:1059E000C003F00F300C18181818181818181818C9
:1059F0001818300CF00FC003000000000000000079
:105A00000000000000000000000000000000000096
:105A1000D803F80F380C1818181818181818181870
:105A20001818380CF80FD8031800180018001800C0
:105A3000180000000000000000000000000000004E
:105A4000C01BF01F301C1818181818181818181830
:105A50001818301CF01FC01B001800180018001880
:105A6000001800000000000000000000000000001E
:105A7000B007F0037000300030003000300030001C
:105A80003000300030003000000000000000000056
:105A90000000000000000000000000000000000006
:105AA000E003F003380E180C3800F003C007000CB8
:105AB000180C380EF007E0030000000000000000A2
:105AC00000000000000000008000C000C000C00016
:105AD000F007F007C000C000C000C000C000C00058
